:1000000012C021C020C01FC01EC01DC01CC01BC00C
:100010001AC019C018C017C016C015C014C013C02C
:1000200012C011C010C011241FBECFE5D4E0DEBF46
:10003000CDBF20E0A0E6B0E001C01D92A836B20717
:10004000E1F79DD2F8C2DCCF9C0142B381E090E0A1
:10005000BC01022E01C0660F0A94EAF7462B42BB90
:1000600042B32F5F3F4F01C0880F2A95EAF7809572
:10007000842382BB089580E280B908980998089586
:10008000CF93DF9300D0CDB7DEB780E490E09A83C2
:10009000898342E0BE016F5F7F4F82E5BDD10F9043
:1000A0000F90DF91CF910895CF93DF9300D000D0D0
:1000B00000D0CDB7DEB7198241E0BE016F5F7F4F40
:1000C00082E5AAD1882309F4B8C08FE99FE001979F
:1000D000F1F700C0000046E0BE016F5F7F4F82E590
:1000E000F4D1882309F4A9C0FE013196A2E6B0E05C
:1000F0009E01295F3F4F97E181918927895E8D930A
:100100002E173F07C9F7809167009091600083FD2B
:1001100076C09160909360009091600084FD71C002
:100120009260909360009091600086FD6CC0946036
:10013000909360009091600085FD67C098609093F7
:100140006000909166002091600092FD60C0206187
:10015000209360002091600094FD5BC0206220939A
:1001600060002091600093FD56C0206420936000E1
:100170002091600091FD51C0206820936000209183
:10018000610095FD4CC021602093610020916100C9
:1001900082FD47C02260209361002091610087FDAD
:1001A00042C02460209361002091610080FD3DC029
:1001B0002860209361002091610096FD38C0206185
:1001C000209361002091610081FD33C02062209363
:1001D00061008091610097FD2EC080648093610072
:1001E000809161008F778093610081E026960FB641
:1001F000F894DEBF0FBECDBFDF91CF9108959E7FF3
:1002000089CF9D7F8ECF9B7F93CF977F98CF2F7E77
:100210009FCF2F7DA4CF2F7BA9CF2F77AECF2E7F5F
:10022000B3CF2D7FB8CF2B7FBDCF277FC2CF2F7EFF
:10023000C7CF2F7DCCCF8F7BD1CF95E39A95F1F7A8
:100240000000E3D080E0D2CF2FEF82E597E021508D
:1002500080409040E1F700C000000DDF2FEF8DEEF1
:1002600092E0215080409040E1F700C0000008DF9C
:100270008FEC97E00197F1F700C0000015CF21E067
:1002800030E0A90102C0440F551F8A95E2F7CA0168
:10029000242F2095662339F095B3922395BB94B310
:1002A000892B84BB089594B3922394BB95B3892B77
:1002B00085BB08959B016130710531F06230710595
:1002C000B1F0672B99F4C0CE62B3A901082E01C02A
:1002D000440F0A94EAF74095462342BB42B3019685
:1002E00001C0220F8A95EAF7242B22BB089542B35E
:1002F00021E030E0B901082E01C0660F0A94EAF748
:10030000462BEBCF1F93CF93DF93C0916000C2FBCE
:10031000DD27D0F9C1FB112710F982309105C9F40E
:10032000C3FB662760F980E0AADF612F81E0A7DFC9
:10033000C0916100C5FF2FC090E080E085DEC3FD65
:1003400002C0DD2391F182E090E0DF91CF911F9117
:100350007BCE039791F4612F80E091DF6D2F81E0D8
:100360008EDFC4FB662760F982E089DFC5FB662764
:1003700060F983E084DFD0E0DBCF6D2F80E07FDFAA
:10038000C3FB662760F981E07ADF612F82E077DFC7
:100390006C2F6170EECF62E070E0C6FD02C061E0DC
:1003A00070E090E080E086DFCACF62E070E0C4FDDC
:1003B00002C061E070E082E090E0DF91CF911F9198
:1003C00079CFA098A198A298A398A898A998AA983C
:1003D000AB98889A899A8A9A8B9A8C9A8D9A8E9AD7
:1003E0008F9A61E070E090E080E064DF61E070E0AF
:1003F00082E090E05FDF62E070E084E090E05ADF4E
:1004000062E070E086E090E055CF84E986BF8AE143
:100410008A95F1F700C008950F931F9394EA96BF51
:1004200001EA16E821E030E006B607FC05C00150FD
:10043000110921093109C1F706B607FC04C086B7C6
:10044000806886BF21C091B1987F983021F091B12A
:10045000987F9031C9F4880F83B984E886BF81EA18
:1004600096E8A1E0B0E006B607FC04C00197A10938
:10047000B109C9F706B607FEE2CF81B1887F262F02
:10048000FB0134E88831C1F0C0DF80E01BC08191FE
:1004900083B936BF81EA96E8A1E0B0E006B607FC72
:1004A00004C00197A109B109C9F706B607FEC7CF75
:1004B00081B1887F883241F78E2F821B841738F3F1
:1004C000A4DF81E01F910F9108950F931F9394EA89
:1004D00096BF01EA16E821E030E006B607FC05C049
:1004E0000150110921093109C1F706B607FC04C002
:1004F00086B7806886BF22C091B1987F983021F07E
:1005000091B1987F9031D1F4880F8F5F83B984E8DF
:1005100086BF81EA96E8A1E0B0E006B607FC04C019
:100520000197A109B109C9F706B607FEE1CF81B16C
:10053000887F262FFB0134EC8034C1F066DF80E039
:100540001BC036BF81EA96E8A1E0B0E006B607FC22
:1005500004C00197A109B109C9F706B607FEC8CFC3
:1005600081B1887F803551F783B181938E2F821BB3
:10057000841738F34ADF81E01F910F91089510E04E
:1005800000E0C1E0D0E0F8940FB6F894A89581B5EA
:10059000886181BD11BC0FBE109260001092610095
:1005A000B89A85E090E0C09AEFE4F3EC3197F1F768
:1005B00000C00000C098EFE4F3EC3197F1F700C001
:1005C0000000019781F778943FDEFBDE212F302F6A
:1005D0001C2F0D2FA895C217D30709F0F2DE64DD9A
:1005E000CE0190DE8091600085FF0CC0809161009B
:1005F00083FD1EC084FF02C0C1E0D0E086FF02C0C0
:10060000C3E0D0E0212F302F8091620090916300F1
:1006100089239091640089239091650089239091AA
:10062000660089239091670089238F3F89F6ABCFBD
:0A063000C2E0D0E0DFCFF894FFCF66
:00000001FF
