:1000000012C021C020C01FC01EC01DC01CC01BC00C
:100010001AC019C018C017C016C015C014C013C02C
:1000200012C011C010C011241FBECFE5D4E0DEBF46
:10003000CDBF20E0A0E6B0E001C01D92A836B20717
:10004000E1F77FD2DAC2DCCF9C0142B381E090E0DD
:10005000BC01022E01C0660F0A94EAF7462B42BB90
:1000600042B32F5F3F4F01C0880F2A95EAF7809572
:10007000842382BB089580E280B908980998089586
:10008000CF93DF9300D0CDB7DEB780E490E09A83C2
:10009000898342E0BE016F5F7F4F82E59FD10F9061
:1000A0000F90DF91CF910895CF93DF9300D000D0D0
:1000B00000D0CDB7DEB7198241E0BE016F5F7F4F40
:1000C00082E58CD1882309F4B8C08FE99FE00197BD
:1000D000F1F700C0000046E0BE016F5F7F4F82E590
:1000E000D6D1882309F4A9C0FE013196A2E6B0E07A
:1000F0009E01295F3F4F97E181918927895E8D930A
:100100002E173F07C9F7809167009091600083FD2B
:1001100076C09160909360009091600084FD71C002
:100120009260909360009091600086FD6CC0946036
:10013000909360009091600085FD67C098609093F7
:100140006000909166002091600092FD60C0206187
:10015000209360002091600094FD5BC0206220939A
:1001600060002091600093FD56C0206420936000E1
:100170002091600091FD51C0206820936000209183
:10018000610095FD4CC021602093610020916100C9
:1001900082FD47C02260209361002091610087FDAD
:1001A00042C02460209361002091610080FD3DC029
:1001B0002860209361002091610096FD38C0206185
:1001C000209361002091610081FD33C02062209363
:1001D00061008091610097FD2EC080648093610072
:1001E000809161008F778093610081E026960FB641
:1001F000F894DEBF0FBECDBFDF91CF9108959E7FF3
:1002000089CF9D7F8ECF9B7F93CF977F98CF2F7E77
:100210009FCF2F7DA4CF2F7BA9CF2F77AECF2E7F5F
:10022000B3CF2D7FB8CF2B7FBDCF277FC2CF2F7EFF
:10023000C7CF2F7DCCCF8F7BD1CF95E39A95F1F7A8
:100240000000C5D080E0D2CF2FEF82E597E02150AB
:1002500080409040E1F700C000000DDF2FEF8DEEF1
:1002600092E0215080409040E1F700C0000008DF9C
:100270008FEC97E00197F1F700C0000015CF21E067
:1002800030E0A90102C0440F551F8A95E2F7CA0168
:10029000242F2095662339F095B3922395BB94B310
:1002A000892B84BB089594B3922394BB95B3892B77
:1002B00085BB08959B016130710531F06230710595
:1002C000B1F0672B99F4C0CE62B3A901082E01C02A
:1002D000440F0A94EAF74095462342BB42B3019685
:1002E00001C0220F8A95EAF7242B22BB089542B35E
:1002F00021E030E0B901082E01C0660F0A94EAF748
:10030000462BEBCF0F931F93CF93DF93C0916000E9
:10031000C2FBDD27D0F9C3FB002700F9C1FB112781
:1003200010F98823C1F0602F80E0A9DF612F81E000
:10033000A6DFC0916100C5FF1DC090E080E084DEB3
:10034000C3FD02C0DD2301F182E090E0DF91CF9197
:100350001F910F9179CE6D2F80E091DF602F81E0AA
:100360008EDF612F82E08BDF6C2F617083E087DF8F
:10037000D0E0DFCF62E070E0C6FD02C061E070E077
:1003800090E080E097DFDCCF62E070E0C4FD02C067
:1003900061E070E082E090E0DF91CF911F910F91DA
:1003A00089CFA098A198A298A398A898A998AA984C
:1003B000AB98889A899A8A9A8B9A61E070E090E06B
:1003C00080E078DF61E070E082E090E073CF84E964
:1003D00086BF8AE18A95F1F700C008950F931F93B5
:1003E00094EA96BF01EA16E821E030E006B607FC81
:1003F00005C00150110921093109C1F706B607FCF2
:1004000004C086B7806886BF21C091B1987F9830BC
:1004100021F091B1987F9031C9F4880F83B984E8B5
:1004200086BF81EA96E8A1E0B0E006B607FC04C00A
:100430000197A109B109C9F706B607FEE2CF81B15C
:10044000887F262FFB0134E88831C1F0C0DF80E0CF
:100450001BC0819183B936BF81EA96E8A1E0B0E084
:1004600006B607FC04C00197A109B109C9F706B691
:1004700007FEC7CF81B1887F883241F78E2F821B5C
:10048000841738F3A4DF81E01F910F9108950F9333
:100490001F9394EA96BF01EA16E821E030E006B621
:1004A00007FC05C00150110921093109C1F706B641
:1004B00007FC04C086B7806886BF22C091B1987FD0
:1004C000983021F091B1987F9031D1F4880F8F5FEF
:1004D00083B984E886BF81EA96E8A1E0B0E006B679
:1004E00007FC04C00197A109B109C9F706B607FEC8
:1004F000E1CF81B1887F262FFB0134EC8034C1F03D
:1005000066DF80E01BC036BF81EA96E8A1E0B0E07C
:1005100006B607FC04C00197A109B109C9F706B6E0
:1005200007FEC8CF81B1887F803551F783B18193B1
:100530008E2F821B841738F34ADF81E01F910F91C1
:10054000089510E000E0C1E0D0E0F8940FB6F89410
:10055000A89581B5886181BD11BC0FBE1092600065
:1005600010926100B89A85E090E0C09AEFE4F3EC55
:100570003197F1F700C00000C098EFE4F3EC319739
:10058000F1F700C00000019781F778945DDE09DF84
:10059000212F302F1C2F0D2FA895C217D30709F03C
:1005A00000DF82DD81E0C230D10509F080E0AADE03
:1005B0008091600085FF08C08091610083FD1AC0B2
:1005C00084FF02C0C1E0D0E0212F302F8091620073
:1005D0009091630089239091640089239091650034
:1005E00089239091660089239091670089238F3F2A
:0E05F00089F6ABCFC2E0D0E0E3CFF894FFCFA6
:00000001FF
